:020000040000FA
:1000000080A0012031010000810100008301000077
:100010008501000087010000890100000000000048
:100020000000000000000000000000008B01000044
:100030008D010000000000008F0100000D0A00008B
:10004000390100003D0100004101000045010000B0
:10005000490100004D010000510100005501000060
:10006000590100005D010000610100006501000010
:10007000690100006D0100007101000075010000C0
:10008000790100007D01000000F002F800F041F865
:100090000AA090E8000C82448344AAF10107DA45E3
:1000A00001D100F036F8AFF2090EBAE80F0013F0F4
:1000B000010F18BFFB1A43F001031847BC130000DF
:1000C000DC130000103A24BF78C878C1FAD8520770
:1000D00024BF30C830C144BF04680C6070470000C2
:1000E0000023002400250026103A28BF78C1FBD841
:1000F000520728BF30C148BF0B607047782900F015
:10010000DE80002070471FB500F0E2FF1FBD10B574
:1001100010BD00F0A9FA1146FFF7F5FF00F0FAFC58
:1001200000F0B0F903B4FFF7F2FF03BC00F0C5FC28
:100130001B4880471B4800471B4800471B48004797
:100140001B4800471B4800471B4800471B48004707
:100150001B4800471B4800471B4800471B480047F7
:100160001B480047104800471A4800471A480047F4
:100170001A4800471A4800471A4800471A480047DB
:10018000FEE7FEE7FEE7FEE7FEE7FEE7FEE7FEE747
:10019000FEE7FEE715481649164A174B7047000060
:1001A0001D0A000089000000B5070000F1070000EB
:1001B000210900003D0900005909000075090000EF
:1001C00091090000B9090000D5090000F1090000FB
:1001D0000D0800003D0800005908000075080000E7
:1001E00091080000B1080000F10800008000002024
:1001F00080A0012080200120802001207047000085
:100200000FB4044910B503AA029800F017FA10BC05
:100210005DF814FB0400002070B504468569006891
:10022000C10601D5302600E02026C00707D070BDEA
:10023000D4E9012130469047206A401C20626D1E9F
:10024000F6D570BD70B5044685690078C00707D142
:1002500070BDD4E9012120209047206A401C206213
:100260006D1EF6D570BD0000F0B40D46018809057D
:1002700002D5214C7C4402E01F4C7C440E3400210A
:1002800000F1240608E002F00F071209E75D42EAD8
:1002900003721B097754491C52EA0307F3D1027811
:1002A0000023120704D5702D06D009B102231134A2
:1002B0002246F0BC00F050B901231034F8E770B5C5
:1002C00004460D4621461068AFF3008002462946D9
:1002D0002046BDE870400023C6E7D21D22F0070388
:1002E000D3E90023C0E70368126843F020030360EA
:1002F0000823C3610023B7E7781100002DE9F05F00
:10030000894604464FF0000ADFF874B1FB44C0F898
:1003100020A02046E1688847002874D0252806D010
:10032000D4E901219047206A401C2062F1E70026B1
:100330005F462046E16888472028054607DB312DC7
:1003400005D2781910F8200C08B10643F1E7B00780
:1003500001D526F00406C4F81CA00027C4F818A094
:100360002A2D09D0284600F0A1FB38B304EB8708FA
:10037000303DC8F8185019E059F8041B204604EB2A
:1003800087029161E1688847012F054618D1E0692D
:10039000002820DA26F020061DE0D8F8180000EB2F
:1003A000800005EB40003038C8F818002046E168AE
:1003B0008847054600F07AFB0028EED1012F0AD0CD
:1003C0002E2D08D12046E16888477F1C0546022F64
:1003D00046F02006C4DBA069002803DA404246F05C
:1003E0000106A061F00701D026F010066C2D0BD09D
:1003F000682D09D04C2D39D06A2D35D0742D35D0CB
:100400007A2D33D016E038E0E1682F462046884741
:10041000B842054609D16C2F26D04FF48060E168C0
:10042000064320468847054604E06C2F1AD04FF457
:10043000807006430DB3A5F14100192802D820357C
:1004400046F400664A462946204626604E46FFF797
:1004500055FE80B101280BD0F61D26F0070000F1F3
:10046000080956E74020E4E78020D8E70020D6E7D7
:1004700006F104094DE7284652E7206ABDE8F09FDF
:100480000811000010B50446AFF300802046BDE817
:100490001040FFF747BE10B5203AC0F00B80B1E81E
:1004A0001850203AA0E81850B1E81850A0E81850A9
:1004B000BFF4F5AF5FEA027C24BFB1E81850A0E8B2
:1004C000185044BF18C918C0BDE810405FEA827CCC
:1004D00024BF51F8043B40F8043B08BF7047D207E3
:1004E00028BF31F8023B48BF11F8012B28BF20F884
:1004F000023B48BF00F8012B70474FF0000200B5E7
:10050000134694469646203922BFA0E80C50A0E836
:100510000C50B1F12001BFF4F7AF090728BFA0E8E4
:100520000C5048BF0CC05DF804EB890028BF40F8B0
:10053000042B08BF704748BF20F8022B11F0804FF2
:1005400018BF00F8012B70477047704770470000D4
:1005500000487047200000202DE9F0470D469946DD
:100560009246044600F124080168880604D5E06933
:1005700021F01001216000E00120A84201DD471BAD
:1005800000E00027A1697A1902EB0900081AA061AE
:100590002078C00602D42046FFF73EFE002608E081
:1005A000D4E901211AF806009047206A401C761C05
:1005B00020624E45F4DB2078C0060AD52046FFF7BE
:1005C0002BFE06E0D4E9012130209047206A401C30
:1005D0002062381EA7F10107F4DC07E0D4E901210D
:1005E00018F805009047206A401C2062281EA5F1DB
:1005F0000105F3DC2046FFF725FE2078000602D532
:100600000220BDE8F0870120FBE7000001694A1CD9
:1006100002610878704700B58FB0CDE90131002143
:10062000059105497944CDE9031011466846FFF765
:1006300065FE0FB000BD0000E5FFFFFF074B70B582
:100640000D467B44FFF7E7FF0446284600F042FAD8
:1006500010B14FF0FF3070BD204670BD9704000010
:10066000004870471C0000207546FFF7F9FFAE46B2
:1006700005006946534620F00700854618B020B5AE
:10068000FFF788FDBDE820404FF000064FF000075F
:100690004FF000084FF0000B21F00701AC46ACE82A
:1006A000C009ACE8C009ACE8C009ACE8C0098D4697
:1006B0007047000010B505A0FFF7A2FD0F20074905
:1006C000086148600860086110BD00000D0A2047FD
:1006D00050494F5F53455448494748000000014086
:1006E00010B506A0FFF78CFD0F2008490861002017
:1006F000486008600F20086110BD00000D0A204707
:1007000050494F5F5345544C4F5700000000014083
:1007100010B50F20224908610846406840F00100EA
:100720004860002008610E2048610846406900F0DA
:10073000700048610846006940F071000861084691
:10074000406A40F00F0048620846C06A40F00F005F
:10075000C8620846406B40F00F0048630846006AD4
:1007600040F0020008620846806A40F00200886299
:100770000846006B40F0020008630846406840F0FD
:10078000100048600846406840F020004860084675
:10079000406800F0FD00486002A0FFF731FD10BD89
:1007A000000001405253545F4E2052455345540DB2
:1007B0000A00000010B508A0FFF722FD06A0FFF711
:1007C0001FFD05A0FFF71CFD03A0FFF719FD02A008
:1007D000FFF716FD10BD00000D0A20492068617664
:1007E0006520504B20696E746572727570740000DC
:1007F00010B502A0FFF704FD10BD00000D0A20494E
:100800006E746572727570743100000010B506A0C8
:10081000FFF7F6FC01200849C860C862FFF74AFFED
:10082000FFF75EFF10BD00000D0A20496E7465726F
:1008300072757074313000000020004010B502A0C5
:10084000FFF7DEFC10BD00000D0A20496E746572D2
:10085000727570743132000010B502A0FFF7D0FC41
:1008600010BD00000D0A20496E74657272757074B7
:100870003133000010B502A0FFF7C2FC10BD00002C
:100880000D0A20496E7465727275707431340000FF
:1008900010B502A0FFF7B4FC10BD00000D0A2049FE
:1008A0006E74657272757074313520504B4500005E
:1008B00010B506A0FFF7A4FC0848016808A0FFF7E0
:1008C0009FFC4FF6FF700549886310BD0D0A204953
:1008D0006E746572727570743136000000000140EC
:1008E0000D0A2064617461206F7574202578000002
:1008F00010B505A0FFF784FC01200749087002200D
:100900000649886310BD00000D0A20496E746572A7
:10091000727570743137000015000020000001402E
:1009200010B502A0FFF76CFC10BD00000D0A2049B5
:100930006E746572727570743200000010B502A09A
:10094000FFF75EFC10BD00000D0A20496E74657251
:10095000727570743300000010B502A0FFF750FCF0
:1009600010BD00000D0A20496E74657272757074B6
:100970003400000010B502A0FFF742FC10BD0000DB
:100980000D0A20496E74657272757074350000002E
:1009900010B504A0FFF734FC4FF6FF7005498863DB
:1009A00010BD00000D0A20496E7465727275707476
:1009B000360000000000014010B502A0FFF720FC47
:1009C00010BD00000D0A20496E7465727275707456
:1009D0003700000010B502A0FFF712FC10BD0000A8
:1009E0000D0A20496E7465727275707438000000CB
:1009F00010B502A0FFF704FC10BD00000D0A20494D
:100A00006E74657272757074390000000248006877
:100A1000401C01490860704700000020014802495D
:100A20000860704740787D011800002000BF04492D
:100A3000896901F020012029F9D001490860704737
:100A40000060004030B54FF4E110154CB4FBF0F1FC
:100A5000B4FBF0F500FB1542D4000511B4FBF5F032
:100A600000F0010404EB500300240E4D2C63AC6332
:100A70006C62AC62EC622C636C632C466162A362B4
:100A80000024EC627024EC62E4002C6304246C63A8
:100A900040F281342C632024034DAC61AC6130BD45
:100AA00000401901006000400010014030380A2861
:100AB00001D2012070470020704700BFFEE70222EC
:100AC00005E0022100E0491E0029FCD1401E00285B
:100AD000F7D1704701464FF0FF30704770B50446BC
:100AE0000D46E0B2FFF7A2FF70BD00000C200749E1
:100AF000086107200860022048600548006840F04F
:100B000001004FF48011C1F8C00070470030004070
:100B1000C00010002DE9F04FADF2446D0120CDF87A
:100B20004006FFF78FFFFFF7E1FFFFF7F1FD4FF4FE
:100B30007A70FFF7C4FF43A0FFF762FB4FF48272A5
:100B400044490DF23C40FFF7A6FC4FF40439002065
:100B500005E00DF23C41095C09F80010401CB0F5BD
:100B6000037FF6DBC846D8F80001CDF83C064FF409
:100B7000037239498CA8FFF78EFC384E002003E041
:100B80008CA9095C3154401CB0F5037FF8DBB246F8
:100B90000AF5807707F1040B0BF104008B903C46BB
:100BA00038680290029800F58670029083AA204669
:100BB000029900F02EF92AA0FFF722FB04250CE091
:100BC000281F83AA115C2BA0FFF71AFB83A82844D7
:100BD00010F8040C03A948556D1C242DF0DB27A048
:100BE000FFF70EFB0DF5A863424643A9504600F0FF
:100BF000FEF82348FFF704FB002510E043A850F857
:100C0000250003A951F82510884207D01DA0FFF741
:100C1000F7FA7B200DF2446DBDE8F08F6D1C402D7E
:100C2000ECDB21A0FFF7ECFA4FF47A70FFF747FFF7
:100C30002249019101990868804721A0FFF7E0FA55
:100C40000020E7E70D0A20434D3820494E49542043
:100C5000454E4400E0100000E4110000F4FD0200E5
:100C60000D0A53484132353620524553554C543ABB
:100C70002000000025303278200000000A0A000021
:100C80002C140000326E6420626F6F746C6F6164AC
:100C900065722064616D6167656420286D6F6469A9
:100CA00066696564290000000A0A5253415F535582
:100CB000434345535345440A0A000000040003001F
:100CC0000D0A20414C4C205445535420454E440AB3
:100CD000000000002DE9F84F06460F469046994661
:100CE000DDF828A04FF0000B002500200090F0B2A6
:100CF00000F068F883462848C0F800B0F0B200F071
:100D00004FF80546002408E0281B57F82000224928
:100D1000C8600120FFF7D3FE641CAC42F4D9002464
:100D200008E0281B58F820001B49C8600120FFF785
:100D3000C6FE641CAC42F4D9002408E0281B59F814
:100D400020001549C8600120FFF7B9FE641CAC42C1
:100D5000F4D90120FFF7B3FE4FF040400E49886000
:100D600005E00D4800690D49884200D100E0F8E730
:100D700000BF002405E008484069291B4AF821000B
:100D8000641CAC42F7D90120034988600520FFF7B5
:100D900096FE2846BDE8F88F00A0004001000080C4
:100DA0000146002021B1012904D0022906D103E027
:100DB0003F2005E03F2003E0FF2001E07F2000BF4F
:100DC00000BF70470146002021B1012904D002294B
:100DD00008D104E0002008E04FF4800005E04FF463
:100DE000000002E04FF4800000BF00BF70472DE913
:100DF000F84304460D4616461F464FF000082346AA
:100E00003A46314601200095FFF764FF8046BDE871
:100E1000F88370B59EB004460D461646684600F04D
:100E2000D3F82A462146684600F01EF93146684646
:100E300000F002F81EB070BD70B504460E46256C79
:100E4000206C38280BD2802228466D1C225403E0E7
:100E5000002228466D1C2254382DF9D315E080223B
:100E600028466D1C225403E0002228466D1C2254A3
:100E7000402DF9D32146204600F0BEF840212046FF
:100E8000FFF73BFB06204E49886094F8700010B1D4
:100E900006204B4988603834A168C900D4E9043081
:100EA000591840F10000C4E90410207CE071208A48
:100EB000217D000A40EA0160A071207D02042169C1
:100EC00042EA11406071217D2069000E40EA012054
:100ED0002071207DE070A08A000AA0706069000C7B
:100EE00060706069000E04F838092146204600F061
:100EF00083F8012032498860C8600020C86000BFC4
:100F00002F4840690128FBD12D49086100250BE0DD
:100F10002C4901EB8500D0F8001EC5F1070204F151
:100F2000500040F822106D1C082DF1D3002544E03C
:100F30001821A1EBC501206DC84070551821A1EB07
:100F4000C501606DC840C1B2281D31541821A1EB04
:100F5000C501A06DC840C1B205F108003154182187
:100F6000A1EBC501E06DC840C1B205F10C003154E0
:100F70001821A1EBC501206EC840C1B205F11000D7
:100F800031541821A1EBC501606EC840C1B205F112
:100F9000140031541821A1EBC501A06EC840C1B2A4
:100FA00005F1180031541821A1EBC501E06EC840CD
:100FB000C1B205F11C0031546D1C042DB8D370BDB5
:100FC00000C0004000E00120002102E00022425465
:100FD000491C4029FADB0022026400238364C364B5
:100FE00080F870204FF4F742024BDA6102229A60D7
:100FF0007047000000C0004010B590B002460020CD
:1010000018E0002303EB8003CB5C1B06012404EBF8
:1010100080040C5D43EA0443022404EB80040C5D6D
:1010200043EA0423032404EB80040C5D23434DF8BE
:101030002030401C1028E4DB01230A4C23600020F0
:1010400004E05DF82030074C6360401C1028F8DB9A
:101050000023044C23600123E3600023E36010B00D
:1010600010BD000000C000402DE9F04104460F46CD
:1010700015464FF00008002623E0B85D216C60544F
:10108000206C401C2064206C402813D1214620464F
:10109000FFF7B2FF4FF40073D4E91220D21840F1E9
:1010A0000000C4E9122000202064382D08D308F184
:1010B000010805E0B8F1000F02D00620034988605E
:1010C000761CAE42D9D3BDE8F081000000C00040DC
:1010D00010B5FFF73DFA4FF00001016010BD0000B0
:1010E0006FB7A569E440363DE45DBDE519A39928D5
:1010F000D9F4AC85121B7526851ADF1E62D4AE4268
:10110000F5EEA04394B8B3A67B38AB02319C0E5DDC
:101110005FF0D9D5A999A1658D95D523935521A0C7
:10112000E134EA7FE82EDB28F7079D7A72BE2EAE07
:10113000BB2CAC9667DB9A11BB8BE38656A76EBFC0
:101140003AFF7700142D3BEB09E6A79EF27CEC7D7D
:10115000B3E0D24333A9D0C98FDA2F160BA6D93406
:10116000112AB68A76DFCE85FF80D6139C037BE9F1
:101170009105FD359B45AB5D0EFD9ED5449270A853
:10118000DC1C948858FE81A1609A8A75937ED29364
:1011900044FADD4C321BB3A5ED4F50C7856A158567
:1011A0009F531FF3E651FF3729D833AE44F5CEE104
:1011B00025A2B30F2C0F9A613311D4147C42CD5663
:1011C000A44B6A7F3541470DE5248A1A786F402485
:1011D000391C9D9C5D7B4F9FF677F28FCD1D08B328
:1011E00001000100764D322F48B5944ED187E45A64
:1011F0001D8CC44A01C45ACF056856A696906AB1A0
:101200008B5CA4D3F8A71A9AA0C4C01216D5108973
:101210005B920DAABA09D815DE72536D5E936544D0
:1012200004C326D3F71B9607E6CD43D836779DB087
:101230006643879E454EC9FA028E8B364DC3BBC1AD
:10124000FB1BD1FA485C931631548EC9BD611DA6B3
:10125000BF33EE1D061410A46D4D84DD8AFA1365AC
:101260006C079EC33E7C48B3C79DA1F5FB91D17529
:10127000E447D428C2BE96532F051A220EACD24999
:10128000CEE418B140BE241087B9BE507180738877
:1012900033000429E6557713F588AEE38981C8A1A8
:1012A00059D94EA29D87CAD43B6E8CB9B83F2E7EC9
:1012B00012EDE47F63B75C5635DA8746EEC55ADC3B
:1012C000D41F5E64246BFDF2F07DBA2F5B11BE4823
:1012D000F6246967D0FC1513C07470C2E02D9139F3
:1012E0009A2824AD84120000752700007912377205
:1012F0008AD147C3F282214546574AD9496C9E7428
:101300006089294E3FBBF6A6DD423BC627CEE33DB2
:10131000FD61F53C7EC259EDDD8BCCFBFDCC44E696
:101320003774CC2283DD957276B3CB63F37B3B09B4
:10133000AE5337C0195B4BD2A429B6897274686763
:101340004DEA1B65BE4469F139A93FC26D96DC22A6
:10135000145C24FBE9221F3619267B92A4CC7F87DC
:101360003C64F81B1D17BA55D7FD88A9A60B13348A
:101370000218F73F3C5FA24F84B74AD6C06F748211
:10138000DE1A5BDC12D9555ACBB17FA29371D444DB
:10139000C413EF3D99DF5E3B8B9EC600AA3B6D1DDB
:1013A000ED6EFC93C724347E2D54AA44EBB01997FC
:1013B0005131ACA6459CF5B29025AE676B25FA1568
:1013C00024487E985BD09C6D2B5B6EF5E7B78A8BCB
:1013D000DADC605FA00A435ED8EF0D2B817BA92980
:1013E0007732A55A91D7115AC92E0DFA0100010082
:1013F000303132333435363738394142434445464B
:101400004030580030313233343536373839616244
:101410006364656640307800040000080000000046
:101420000000000200010000100000000D0A3D3D18
:101430003D3D3D3D3D3D3D3D3D3D3D3D3D3D3D3DDC
:101440003D3D3D3D3D3D3D3D3D3D3D3D3D3D3D3DCC
:101450003D3D3D3D3D3D3D3D3D3D3D3D3D3D3D3DBC
:101460003D3D3D3D3D3D3D3D3D3D3D3D3D3D3D3DAC
:101470003D3D3D3D3D0A0000981400000000002065
:101480001C000000C4000000B41400001C00002078
:1014900064A00100E0000000010000000000000066
:1014A000000000000000000000000000000000003C
:0414B00040787D0102
:04000005000000896E
:00000001FF
