:020000040006F4
:1000000080320120310106008101060083010600D3
:100010008501060087010600890106000000000036
:100020000000000000000000000000008B0106003E
:100030008D010600000000008F010600090906007E
:10004000390106003D010600410106004501060098
:10005000490106004D010600510106005501060048
:10006000590106005D0106006101060065010600F8
:10007000690106006D0106007101060075010600A8
:10008000790106007D01060000F002F800F041F859
:100090000AA090E8000C82448344AAF10107DA45E3
:1000A00001D100F036F8AFF2090EBAE80F0013F0F4
:1000B000010F18BFFB1A43F001031847640A000040
:1000C000840A0000103A24BF78C878C1FAD85207D1
:1000D00024BF30C830C144BF04680C6070470000C2
:1000E0000023002400250026103A28BF78C1FBD841
:1000F000520728BF30C148BF0B607047782900F015
:10010000B680002070471FB500F0C0FC1FBD10B5C1
:1001100010BD00F027FA1146FFF7F5FF00F078FC5C
:1001200000F088F903B4FFF7F2FF03BC00F043FCD2
:100130001B4880471B4800471B4800471B48004797
:100140001B4800471B4800471B4800471B48004707
:100150001B4800471B4800471B4800471B480047F7
:100160001B480047104800471A4800471A480047F4
:100170001A4800471A4800471A4800471A480047DB
:10018000FEE7FEE7FEE7FEE7FEE7FEE7FEE7FEE747
:10019000FEE7FEE715481649164A174B7047000060
:1001A0001909060089000600B1060600ED060600E2
:1001B0001D080600390806005508060071080600EB
:1001C0008D080600B5080600D1080600ED080600F7
:1001D00009070600390706005507060071070600E3
:1001E0008D070600AD070600ED0706008000002021
:1001F00080320120802001208020012070470000F3
:100200000FB4044910B503AA029800F095F910BC88
:100210005DF814FB04000020F0B40D4601880905C8
:1002200002D5214C7C4402E01F4C7C440E3400215A
:1002300000F1240608E002F00F071209E75D42EA28
:1002400003721B097754491C52EA0307F3D1027861
:100250000023120704D5702D06D009B102231134F2
:100260002246F0BC00F0F6B801231034F8E770B570
:1002700004460D4621461068AFF300800246294629
:100280002046BDE870400023C6E7D21D22F00703D8
:10029000D3E90023C0E70368126843F0200303603A
:1002A0000823C3610023B7E7720800002DE9F05F5F
:1002B000894604464FF0000ADFF874B1FB44C0F8E9
:1002C00020A02046E1688847002874D0252806D061
:1002D000D4E901219047206A401C2062F1E7002602
:1002E0005F462046E16888472028054607DB312D18
:1002F00005D2781910F8200C08B10643F1E7B007D1
:1003000001D526F00406C4F81CA00027C4F818A0E4
:100310002A2D09D0284600F047FB38B304EB8708A4
:10032000303DC8F8185019E059F8041B204604EB7A
:1003300087029161E1688847012F054618D1E0697D
:10034000002820DA26F020061DE0D8F8180000EB7F
:10035000800005EB40003038C8F818002046E168FE
:100360008847054600F020FB0028EED1012F0AD077
:100370002E2D08D12046E16888477F1C0546022FB4
:1003800046F02006C4DBA069002803DA404246F0AC
:100390000106A061F00701D026F010066C2D0BD0ED
:1003A000682D09D04C2D39D06A2D35D0742D35D01B
:1003B0007A2D33D016E038E0E1682F462046884792
:1003C000B842054609D16C2F26D04FF48060E16811
:1003D000064320468847054604E06C2F1AD04FF4A8
:1003E000807006430DB3A5F14100192802D82035CD
:1003F00046F400664A462946204626604E46FFF7E8
:100400007DFE80B101280BD0F61D26F0070000F11B
:10041000080956E74020E4E78020D8E70020D6E727
:1004200006F104094DE7284652E7206ABDE8F09F2F
:100430000208000010B50446AFF300802046BDE876
:100440001040FFF76FBE7047704770470048704715
:10045000200000202DE9F0470D46994692460446BB
:1004600000F124080168880604D5E06921F0100134
:10047000216000E00120A84201DD471B00E00027C9
:10048000A1697A1902EB0900081AA0612078C00658
:1004900002D42046AFF30080002608E0D4E9012111
:1004A0001AF806009047206A401C761C20624E45D0
:1004B000F4DB2078C0060AD52046AFF3008006E0C2
:1004C000D4E9012130209047206A401C2062381E68
:1004D000A7F10107F4DC07E0D4E9012118F80500D1
:1004E0009047206A401C2062281EA5F10105F3DC1C
:1004F0002046AFF300802078000602D50220BDE838
:10050000F0870120FBE7000001694A1C02610878BE
:10051000704700B58FB0CDE9013100210591054943
:100520007944CDE9031011466846FFF7BFFE0FB0CE
:1005300000BD0000E5FFFFFF074B70B50D467B4493
:10054000FFF7E7FF0446284600F042FA10B14FF0EB
:10055000FF3070BD204670BD970400000048704712
:100560001C0000207546FFF7F9FFAE4605006946FE
:10057000534620F00700854618B020B5FFF70AFE65
:10058000BDE820404FF000064FF000074FF0000894
:100590004FF0000B21F00701AC46ACE8C009ACE815
:1005A000C009ACE8C009ACE8C0098D46704700003E
:1005B00010B505A0FFF724FE0F2007490861486029
:1005C0000860086110BD00000D0A204750494F5FC8
:1005D00053455448494748000000014010B506A063
:1005E000FFF70EFE0F2008490861002048600860F0
:1005F0000F20086110BD00000D0A204750494F5FD1
:100600005345544C4F5700000000014010B50F20D7
:10061000224908610846406840F001004860002017
:1006200008610E2048610846406900F0700048618A
:100630000846006940F0710008610846406A40F0D1
:100640000F0048620846C06A40F00F00C8620846C2
:10065000406B40F00F0048630846006A40F002001B
:1006600008620846806A40F0020088620846006B13
:1006700040F0020008630846406840F010004860FF
:100680000846406840F0200048600846406800F096
:10069000FD00486002A0FFF7B3FD10BD000001405F
:1006A0005253545F4E2052455345540D0A000000EA
:1006B00010B508A0FFF7A4FD06A0FFF7A1FD05A057
:1006C000FFF79EFD03A0FFF79BFD02A0FFF798FD3B
:1006D00010BD00000D0A2049206861766520504B4E
:1006E00020696E74657272757074000010B502A096
:1006F000FFF786FD10BD00000D0A20496E7465727B
:10070000727570743100000010B506A0FFF778FD17
:1007100001200849C860C862FFF74AFFFFF75EFF83
:1007200010BD00000D0A20496E74657272757074F8
:10073000313000000020004010B502A0FFF760FD3E
:1007400010BD00000D0A20496E74657272757074D8
:100750003132000010B502A0FFF752FD10BD0000BD
:100760000D0A20496E746572727570743133000021
:1007700010B502A0FFF744FD10BD00000D0A20498E
:100780006E746572727570743134000010B502A019
:10079000FFF736FD10BD00000D0A20496E7465722A
:1007A00072757074313520504B45000010B506A0AD
:1007B000FFF726FD0848016808A0FFF721FD4FF666
:1007C000FF700549886310BD0D0A20496E7465727B
:1007D0007275707431360000000001400D0A20640B
:1007E000617461206F7574202578000010B505A034
:1007F000FFF706FD012007490870022006498863BB
:1008000010BD00000D0A20496E7465727275707417
:1008100031370000150000200000014010B502A093
:10082000FFF7EEFC10BD00000D0A20496E746572E2
:10083000727570743200000010B502A0FFF7E0FC82
:1008400010BD00000D0A20496E74657272757074D7
:100850003300000010B502A0FFF7D2FC10BD00006D
:100860000D0A20496E746572727570743400000050
:1008700010B502A0FFF7C4FC10BD00000D0A20490E
:100880006E746572727570743500000010B504A046
:10089000FFF7B6FC4FF6FF700549886310BD0000F6
:1008A0000D0A20496E74657272757074360000000E
:1008B0000000014010B502A0FFF7A2FC10BD00002F
:1008C0000D0A20496E7465727275707437000000ED
:1008D00010B502A0FFF794FC10BD00000D0A2049DE
:1008E0006E746572727570743800000010B502A0E5
:1008F000FFF786FC10BD00000D0A20496E7465727A
:10090000727570743900000002480068401C01498B
:1009100008607047000000200148024908607047E5
:1009200040787D011800002000BF0449896901F06A
:1009300020012029F9D0014908607047006000407B
:1009400030B54FF4E110154CB4FBF0F1B4FBF0F509
:1009500000FB1542D4000511B4FBF5F000F00104D2
:1009600004EB500300240E4D2C63AC636C62AC624C
:10097000EC622C636C632C466162A3620024EC621F
:100980007024EC62E4002C6304246C6340F2813434
:100990002C632024034DAC61AC6130BD00401901D3
:1009A000006000400010014030380A2801D20120C8
:1009B00070470020704700BFFEE7022205E00221D9
:1009C00000E0491E0029FCD1401E0028F7D17047E5
:1009D00001464FF0FF30704770B504460D46E0B257
:1009E000FFF7A2FF70BD00000C2007490861072037
:1009F0000860022048600548006840F001004FF49C
:100A00008011C1F8C000704700300040C0001000E5
:100A100010B50124FFF794FFFFF7E6FFFFF7F6FD9F
:100A200008A0FFF7EDFB4FF47A70FFF7C6FF0CA0AC
:100A3000FFF7E6FB0F48FFF7E3FB0FA0FFF7E0FB34
:100A4000002010BD0A0A4669726D77617265206ADE
:100A5000756D7020737563636573730A0A00000017
:100A60006368616E676564204669726D776172655F
:100A700000000000D40A06000D0A20414C4C20540E
:100A800045535420454E440A0000000010B5FFF7BE
:100A9000DDFC4FF00001016010BD303132333435E0
:100AA00036373839414243444546403058003031AA
:100AB00032333435363738396162636465664030C5
:100AC000780004000008000000000000000200019F
:100AD000000010000D0A3D3D3D3D3D3D3D3D3D3D8D
:100AE0003D3D3D3D3D3D3D3D3D3D3D3D3D3D3D3D36
:100AF0003D3D3D3D3D3D3D3D3D3D3D3D3D3D3D3D26
:100B00003D3D3D3D3D3D3D3D3D3D3D3D3D3D3D3D15
:100B10003D3D3D3D3D3D3D3D3D3D3D3D3D0A0000B2
:100B2000400B0600000000201C000000C40006006E
:100B30005C0B06001C00002064320100E00006008F
:100B400001000000000000000000000000000000A4
:0C0B5000000000000000000040787D0163
:040000050006008968
:00000001FF
